{
  "contractName": "TodoList",
  "abi": [
    {
      "inputs": [],
      "stateMutability": "nonpayable",
      "type": "constructor"
    },
    {
      "inputs": [
        {
          "internalType": "uint256",
          "name": "",
          "type": "uint256"
        }
      ],
      "name": "tasks",
      "outputs": [
        {
          "internalType": "uint8",
          "name": "id",
          "type": "uint8"
        },
        {
          "internalType": "bytes32",
          "name": "content",
          "type": "bytes32"
        },
        {
          "internalType": "bool",
          "name": "isCompleted",
          "type": "bool"
        }
      ],
      "stateMutability": "view",
      "type": "function",
      "constant": true
    },
    {
      "inputs": [
        {
          "internalType": "bytes32",
          "name": "_content",
          "type": "bytes32"
        }
      ],
      "name": "addTask",
      "outputs": [],
      "stateMutability": "nonpayable",
      "type": "function"
    },
    {
      "inputs": [
        {
          "internalType": "uint8",
          "name": "_taskId",
          "type": "uint8"
        }
      ],
      "name": "markCompleted",
      "outputs": [],
      "stateMutability": "nonpayable",
      "type": "function"
    },
    {
      "inputs": [],
      "name": "getTaskCount",
      "outputs": [
        {
          "internalType": "uint8",
          "name": "",
          "type": "uint8"
        }
      ],
      "stateMutability": "view",
      "type": "function",
      "constant": true
    },
    {
      "inputs": [
        {
          "internalType": "uint8",
          "name": "_taskId",
          "type": "uint8"
        }
      ],
      "name": "getTask",
      "outputs": [
        {
          "components": [
            {
              "internalType": "uint8",
              "name": "id",
              "type": "uint8"
            },
            {
              "internalType": "bytes32",
              "name": "content",
              "type": "bytes32"
            },
            {
              "internalType": "bool",
              "name": "isCompleted",
              "type": "bool"
            }
          ],
          "internalType": "struct TodoList.Task",
          "name": "",
          "type": "tuple"
        }
      ],
      "stateMutability": "view",
      "type": "function",
      "constant": true
    }
  ],
  "bytecode": "0x608060405234801561001057600080fd5b506108b0806100206000396000f3fe608060405234801561001057600080fd5b50600436106100575760003560e01c806312d298d21461005c5780638d977672146100785780639f51e186146100aa578063c17a340e146100da578063ccf6c84c146100f8575b600080fd5b610076600480360381019061007191906104a1565b610114565b005b610092600480360381019061008d9190610504565b610240565b6040516100a193929190610574565b60405180910390f35b6100c460048036038101906100bf91906104a1565b610294565b6040516100d1919061061a565b60405180910390f35b6100e261037b565b6040516100ef9190610635565b60405180910390f35b610112600480360381019061010d919061067c565b610387565b005b60008160ff1611801561012f57506000805490508160ff1611155b61016e576040517f08c379a000000000000000000000000000000000000000000000000000000000815260040161016590610706565b60405180910390fd5b600060018261017d9190610755565b60ff168154811061019157610190610789565b5b906000526020600020906003020160020160009054906101000a900460ff16156101f0576040517f08c379a00000000000000000000000000000000000000000000000000000000081526004016101e790610804565b60405180910390fd5b600160006001836102019190610755565b60ff168154811061021557610214610789565b5b906000526020600020906003020160020160006101000a81548160ff02191690831515021790555050565b6000818154811061025057600080fd5b90600052602060002090600302016000915090508060000160009054906101000a900460ff16908060010154908060020160009054906101000a900460ff16905083565b61029c61043a565b60008260ff161180156102b757506000805490508260ff1611155b6102f6576040517f08c379a00000000000000000000000000000000000000000000000000000000081526004016102ed90610706565b60405180910390fd5b60006001836103059190610755565b60ff168154811061031957610318610789565b5b90600052602060002090600302016040518060600160405290816000820160009054906101000a900460ff1660ff1660ff168152602001600182015481526020016002820160009054906101000a900460ff1615151515815250509050919050565b60008080549050905090565b6000600160008054905061039b9190610824565b9050600060405180606001604052808360ff16815260200184815260200160001515815250908060018154018082558091505060019003906000526020600020906003020160009091909190915060008201518160000160006101000a81548160ff021916908360ff1602179055506020820151816001015560408201518160020160006101000a81548160ff02191690831515021790555050505050565b6040518060600160405280600060ff168152602001600080191681526020016000151581525090565b600080fd5b600060ff82169050919050565b61047e81610468565b811461048957600080fd5b50565b60008135905061049b81610475565b92915050565b6000602082840312156104b7576104b6610463565b5b60006104c58482850161048c565b91505092915050565b6000819050919050565b6104e1816104ce565b81146104ec57600080fd5b50565b6000813590506104fe816104d8565b92915050565b60006020828403121561051a57610519610463565b5b6000610528848285016104ef565b91505092915050565b61053a81610468565b82525050565b6000819050919050565b61055381610540565b82525050565b60008115159050919050565b61056e81610559565b82525050565b60006060820190506105896000830186610531565b610596602083018561054a565b6105a36040830184610565565b949350505050565b6105b481610468565b82525050565b6105c381610540565b82525050565b6105d281610559565b82525050565b6060820160008201516105ee60008501826105ab565b50602082015161060160208501826105ba565b50604082015161061460408501826105c9565b50505050565b600060608201905061062f60008301846105d8565b92915050565b600060208201905061064a6000830184610531565b92915050565b61065981610540565b811461066457600080fd5b50565b60008135905061067681610650565b92915050565b60006020828403121561069257610691610463565b5b60006106a084828501610667565b91505092915050565b600082825260208201905092915050565b7f496e76616c6964207461736b2049440000000000000000000000000000000000600082015250565b60006106f0600f836106a9565b91506106fb826106ba565b602082019050919050565b6000602082019050818103600083015261071f816106e3565b9050919050565b7f4e487b7100000000000000000000000000000000000000000000000000000000600052601160045260246000fd5b600061076082610468565b915061076b83610468565b92508282101561077e5761077d610726565b5b828203905092915050565b7f4e487b7100000000000000000000000000000000000000000000000000000000600052603260045260246000fd5b7f5461736b20697320616c726561647920636f6d706c6574656400000000000000600082015250565b60006107ee6019836106a9565b91506107f9826107b8565b602082019050919050565b6000602082019050818103600083015261081d816107e1565b9050919050565b600061082f826104ce565b915061083a836104ce565b9250827fffffffffffffffffffffffffffffffffffffffffffffffffffffffffffffffff0382111561086f5761086e610726565b5b82820190509291505056fea2646970667358221220e17a810459d823eb50785b099dc8e0c3b42be6add207f089feb5320fd42076cb64736f6c634300080d0033",
  "immutableReferences": {},
  "source": "pragma solidity ^0.8.13;\n\ncontract TodoList {\n    // Task structure to represent a single task\n    struct Task {\n        uint8 id;\n        bytes32 content;\n        bool isCompleted;\n    }\n\n    // Constructor to initialize the contract with default tasks\n    constructor() {\n        // Add default tasks during contract deployment\n    }\n\n    // Array to store all tasks\n    Task[] public tasks;\n\n    // Function to add a new task\n    function addTask(bytes32 _content) public {\n        uint8 taskId = uint8(tasks.length + 1);\n        tasks.push(Task(taskId, _content, false));\n    }\n\n    // Function to mark a task as completed\n    function markCompleted(uint8 _taskId) public {\n        require(_taskId > 0 && _taskId <= tasks.length, \"Invalid task ID\");\n        require(!tasks[_taskId - 1].isCompleted, \"Task is already completed\"); // Reason string added\n        tasks[_taskId - 1].isCompleted = true;\n    }\n\n    // Function to get the total number of tasks\n    function getTaskCount() public view returns (uint8) {\n        return uint8(tasks.length);\n    }\n\n    // Function to get a specific task's details\n    function getTask(uint8 _taskId) public view returns (Task memory) {\n        require(_taskId > 0 && _taskId <= tasks.length, \"Invalid task ID\");\n        return tasks[_taskId - 1];\n    }\n}",
  "sourcePath": "/Users/gabriel.manfroi/gabriel/the_coding_compass/taskchain/contracts/TodoList.sol",
  "compiler": {
    "name": "solc",
    "version": "0.8.13+commit.abaa5c0e.Emscripten.clang"
  },
  "schemaVersion": "3.4.14",
  "updatedAt": "2023-07-28T22:40:13.791Z",
  "networkType": "ethereum",
  "devdoc": {
    "kind": "dev",
    "methods": {},
    "version": 1
  },
  "userdoc": {
    "kind": "user",
    "methods": {},
    "version": 1
  }
}